{
  "contractName": "StoreAthletes",
  "abi": [
    {
      "inputs": [
        {
          "internalType": "uint32",
          "name": "",
          "type": "uint32"
        }
      ],
      "name": "athletes",
      "outputs": [
        {
          "internalType": "string",
          "name": "name",
          "type": "string"
        },
        {
          "internalType": "uint8",
          "name": "age",
          "type": "uint8"
        },
        {
          "internalType": "string",
          "name": "height",
          "type": "string"
        },
        {
          "internalType": "string",
          "name": "weight",
          "type": "string"
        }
      ],
      "stateMutability": "view",
      "type": "function"
    },
    {
      "inputs": [
        {
          "components": [
            {
              "internalType": "string",
              "name": "name",
              "type": "string"
            },
            {
              "internalType": "uint8",
              "name": "age",
              "type": "uint8"
            },
            {
              "internalType": "string",
              "name": "height",
              "type": "string"
            },
            {
              "internalType": "string",
              "name": "weight",
              "type": "string"
            }
          ],
          "internalType": "struct StoreAthletes.Athlete",
          "name": "newAthlete",
          "type": "tuple"
        }
      ],
      "name": "addAthlete",
      "outputs": [],
      "stateMutability": "nonpayable",
      "type": "function"
    }
  ],
  "bytecode": "0x60806040526000805463ffffffff1916905534801561001d57600080fd5b506107038061002d6000396000f3fe608060405234801561001057600080fd5b50600436106100365760003560e01c806326e5c2171461003b57806386de750914610067575b600080fd5b61004e6100493660046102f9565b61007c565b60405161005e949392919061036c565b60405180910390f35b61007a610075366004610485565b610245565b005b60016020526000908152604090208054819061009790610553565b80601f01602080910402602001604051908101604052809291908181526020018280546100c390610553565b80156101105780601f106100e557610100808354040283529160200191610110565b820191906000526020600020905b8154815290600101906020018083116100f357829003601f168201915b5050506001840154600285018054949560ff90921694919350915061013490610553565b80601f016020809104026020016040519081016040528092919081815260200182805461016090610553565b80156101ad5780601f10610182576101008083540402835291602001916101ad565b820191906000526020600020905b81548152906001019060200180831161019057829003601f168201915b5050505050908060030180546101c290610553565b80601f01602080910402602001604051908101604052809291908181526020018280546101ee90610553565b801561023b5780601f106102105761010080835404028352916020019161023b565b820191906000526020600020905b81548152906001019060200180831161021e57829003601f168201915b5050505050905084565b80600160006102526102c0565b63ffffffff16815260208101919091526040016000208151819061027690826105dc565b50602082015160018201805460ff191660ff909216919091179055604082015160028201906102a590826105dc565b50606082015160038201906102ba90826105dc565b50505050565b60008054819081906102d79063ffffffff1661069c565b91906101000a81548163ffffffff021916908363ffffffff1602179055905090565b60006020828403121561030b57600080fd5b813563ffffffff8116811461031f57600080fd5b9392505050565b6000815180845260005b8181101561034c57602081850181015186830182015201610330565b506000602082860101526020601f19601f83011685010191505092915050565b60808152600061037f6080830187610326565b60ff86166020840152828103604084015261039a8186610326565b905082810360608401526103ae8185610326565b979650505050505050565b634e487b7160e01b600052604160045260246000fd5b6040516080810167ffffffffffffffff811182821017156103f2576103f26103b9565b60405290565b600082601f83011261040957600080fd5b813567ffffffffffffffff80821115610424576104246103b9565b604051601f8301601f19908116603f0116810190828211818310171561044c5761044c6103b9565b8160405283815286602085880101111561046557600080fd5b836020870160208301376000602085830101528094505050505092915050565b60006020828403121561049757600080fd5b813567ffffffffffffffff808211156104af57600080fd5b90830190608082860312156104c357600080fd5b6104cb6103cf565b8235828111156104da57600080fd5b6104e6878286016103f8565b825250602083013560ff811681146104fd57600080fd5b602082015260408301358281111561051457600080fd5b610520878286016103f8565b60408301525060608301358281111561053857600080fd5b610544878286016103f8565b60608301525095945050505050565b600181811c9082168061056757607f821691505b60208210810361058757634e487b7160e01b600052602260045260246000fd5b50919050565b601f8211156105d757600081815260208120601f850160051c810160208610156105b45750805b601f850160051c820191505b818110156105d3578281556001016105c0565b5050505b505050565b815167ffffffffffffffff8111156105f6576105f66103b9565b61060a816106048454610553565b8461058d565b602080601f83116001811461063f57600084156106275750858301515b600019600386901b1c1916600185901b1785556105d3565b600085815260208120601f198616915b8281101561066e5788860151825594840194600190910190840161064f565b508582101561068c5787850151600019600388901b60f8161c191681555b5050505050600190811b01905550565b600063ffffffff8083168181036106c357634e487b7160e01b600052601160045260246000fd5b600101939250505056fea26469706673582212202cded63e1456274ca586289219023cd79393f56c1ea6bf1d637222e8165d10d864736f6c63430008110033",
  "immutableReferences": {},
  "source": "// SPDX-License-Identifier: MIT\n\npragma solidity ^0.8.17;\n\ncontract StoreAthletes {\n\n    struct Athlete {\n        string name;\n        uint8 age;\n        string height;\n        string weight;\n    }\n\n    uint32 private nextId = 0;\n\n    function getNextId() private returns(uint32) {\n        return ++nextId;\n    }\n\n    mapping (uint32 => Athlete) public athletes;\n\n    function addAthlete(Athlete memory newAthlete) public {\n        athletes[getNextId()] = newAthlete;\n    }\n\n\n\n}\n",
  "sourcePath": "/Users/gabrieltome/Documents/Projects/crud-solidity/contracts/StoreAthletes.sol",
  "compiler": {
    "name": "solc",
    "version": "0.8.17+commit.8df45f5f.Emscripten.clang"
  },
  "schemaVersion": "3.4.10",
  "updatedAt": "2022-10-01T23:55:47.303Z",
  "devdoc": {
    "kind": "dev",
    "methods": {},
    "version": 1
  },
  "userdoc": {
    "kind": "user",
    "methods": {},
    "version": 1
  }
}