{
  "contractName": "StoreAthletes",
  "abi": [
    {
      "inputs": [],
      "stateMutability": "nonpayable",
      "type": "constructor"
    },
    {
      "inputs": [
        {
          "internalType": "uint32",
          "name": "",
          "type": "uint32"
        }
      ],
      "name": "athletes",
      "outputs": [
        {
          "internalType": "string",
          "name": "name",
          "type": "string"
        },
        {
          "internalType": "uint8",
          "name": "age",
          "type": "uint8"
        },
        {
          "internalType": "uint8",
          "name": "height",
          "type": "uint8"
        },
        {
          "internalType": "uint8",
          "name": "weight",
          "type": "uint8"
        }
      ],
      "stateMutability": "view",
      "type": "function",
      "constant": true
    },
    {
      "inputs": [],
      "name": "count",
      "outputs": [
        {
          "internalType": "uint32",
          "name": "",
          "type": "uint32"
        }
      ],
      "stateMutability": "view",
      "type": "function",
      "constant": true
    },
    {
      "inputs": [
        {
          "components": [
            {
              "internalType": "string",
              "name": "name",
              "type": "string"
            },
            {
              "internalType": "uint8",
              "name": "age",
              "type": "uint8"
            },
            {
              "internalType": "uint8",
              "name": "height",
              "type": "uint8"
            },
            {
              "internalType": "uint8",
              "name": "weight",
              "type": "uint8"
            }
          ],
          "internalType": "struct StoreAthletes.Athlete",
          "name": "newAthlete",
          "type": "tuple"
        }
      ],
      "name": "addAthlete",
      "outputs": [],
      "stateMutability": "nonpayable",
      "type": "function"
    },
    {
      "inputs": [
        {
          "internalType": "uint32",
          "name": "id",
          "type": "uint32"
        }
      ],
      "name": "getAthlete",
      "outputs": [
        {
          "components": [
            {
              "internalType": "string",
              "name": "name",
              "type": "string"
            },
            {
              "internalType": "uint8",
              "name": "age",
              "type": "uint8"
            },
            {
              "internalType": "uint8",
              "name": "height",
              "type": "uint8"
            },
            {
              "internalType": "uint8",
              "name": "weight",
              "type": "uint8"
            }
          ],
          "internalType": "struct StoreAthletes.Athlete",
          "name": "",
          "type": "tuple"
        }
      ],
      "stateMutability": "view",
      "type": "function",
      "constant": true
    },
    {
      "inputs": [
        {
          "internalType": "uint32",
          "name": "id",
          "type": "uint32"
        },
        {
          "components": [
            {
              "internalType": "string",
              "name": "name",
              "type": "string"
            },
            {
              "internalType": "uint8",
              "name": "age",
              "type": "uint8"
            },
            {
              "internalType": "uint8",
              "name": "height",
              "type": "uint8"
            },
            {
              "internalType": "uint8",
              "name": "weight",
              "type": "uint8"
            }
          ],
          "internalType": "struct StoreAthletes.Athlete",
          "name": "newAthlete",
          "type": "tuple"
        }
      ],
      "name": "editAthlete",
      "outputs": [],
      "stateMutability": "nonpayable",
      "type": "function"
    },
    {
      "inputs": [
        {
          "internalType": "uint32",
          "name": "id",
          "type": "uint32"
        }
      ],
      "name": "removeAthlete",
      "outputs": [],
      "stateMutability": "nonpayable",
      "type": "function"
    }
  ],
  "bytecode": "0x60a0604052600080546001600160401b031916905534801561002057600080fd5b5033608052608051610cdc610040600039600061050e0152610cdc6000f3fe608060405234801561001057600080fd5b50600436106100625760003560e01c806306661abd1461006757806326e5c21714610099578063af66133f146100bc578063c211ce10146100dc578063d78a6881146100f1578063d7cd41ee14610104575b600080fd5b60005461007f90640100000000900463ffffffff1681565b60405163ffffffff90911681526020015b60405180910390f35b6100ac6100a7366004610839565b610117565b60405161009094939291906108a1565b6100cf6100ca366004610839565b6101d1565b60405161009091906108d7565b6100ef6100ea366004610a79565b6102d6565b005b6100ef6100ff366004610839565b61050c565b6100ef610112366004610ac7565b6106dd565b60016020526000908152604090208054819061013290610b04565b80601f016020809104026020016040519081016040528092919081815260200182805461015e90610b04565b80156101ab5780601f10610180576101008083540402835291602001916101ab565b820191906000526020600020905b81548152906001019060200180831161018e57829003601f168201915b5050506001909301549192505060ff808216916101008104821691620100009091041684565b60408051608081018252606080825260006020830181905292820183905281019190915263ffffffff82166000908152600160205260409081902081516080810190925280548290829061022490610b04565b80601f016020809104026020016040519081016040528092919081815260200182805461025090610b04565b801561029d5780601f106102725761010080835404028352916020019161029d565b820191906000526020600020905b81548152906001019060200180831161028057829003601f168201915b50505091835250506001919091015460ff8082166020840152610100820481166040840152620100009091041660609091015292915050565b63ffffffff821660009081526001602052604080822081516080810190925280548290829061030490610b04565b80601f016020809104026020016040519081016040528092919081815260200182805461033090610b04565b801561037d5780601f106103525761010080835404028352916020019161037d565b820191906000526020600020905b81548152906001019060200180831161036057829003601f168201915b50505091835250506001919091015460ff808216602080850191909152610100830482166040850152620100009092048116606090930192909252820151919250166000036103cb57505050565b6000826020015160ff161180156103f05750816020015160ff16816020015160ff1614155b156104035760208083015160ff16908201525b8151511580159061042557508051825180516020918201208251919092012014155b1561042f57815181525b6000826040015160ff161180156104545750816040015160ff16816040015160ff1614155b156104675760408083015160ff16908201525b6000826060015160ff1611801561048c5750816060015160ff16816060015160ff1614155b1561049f5760608083015160ff16908201525b63ffffffff83166000908152600160205260409020815182919081906104c59082610b8d565b50602082015160019091018054604084015160609094015160ff908116620100000262ff0000199582166101000261ffff1990931691909416171792909216179055505050565b7f00000000000000000000000000000000000000000000000000000000000000006001600160a01b031633146105885760405162461bcd60e51b815260206004820152601860248201527f43616c6c6572206973206e6f7420746865206f776e65722e0000000000000000604482015260640160405180910390fd5b63ffffffff81166000908152600160205260408082208151608081019092528054829082906105b690610b04565b80601f01602080910402602001604051908101604052809291908181526020018280546105e290610b04565b801561062f5780601f106106045761010080835404028352916020019161062f565b820191906000526020600020905b81548152906001019060200180831161061257829003601f168201915b50505091835250506001919091015460ff80821660208401526101008204811660408401526201000090910416606090910152805151909150156106d95763ffffffff821660009081526001602052604081209061068d82826107ca565b50600101805462ffffff1916905560008054640100000000900463ffffffff169060046106b983610c63565b91906101000a81548163ffffffff021916908363ffffffff160217905550505b5050565b80600160006106ea610791565b63ffffffff16815260208101919091526040016000208151819061070e9082610b8d565b50602082015160019091018054604084015160609094015160ff908116620100000262ff0000199582166101000261ffff19909316919094161717929092161790556000805463ffffffff6401000000009091041690600461076f83610c83565b91906101000a81548163ffffffff021916908363ffffffff1602179055505050565b60008054819081906107a89063ffffffff16610c83565b91906101000a81548163ffffffff021916908363ffffffff1602179055905090565b5080546107d690610b04565b6000825580601f106107e6575050565b601f0160209004906000526020600020908101906108049190610807565b50565b5b8082111561081c5760008155600101610808565b5090565b803563ffffffff8116811461083457600080fd5b919050565b60006020828403121561084b57600080fd5b61085482610820565b9392505050565b6000815180845260005b8181101561088157602081850181015186830182015201610865565b506000602082860101526020601f19601f83011685010191505092915050565b6080815260006108b4608083018761085b565b60ff95861660208401529385166040830152509216606090920191909152919050565b6020815260008251608060208401526108f360a084018261085b565b905060ff602085015116604084015260ff604085015116606084015260ff60608501511660808401528091505092915050565b634e487b7160e01b600052604160045260246000fd5b6040516080810167ffffffffffffffff8111828210171561095f5761095f610926565b60405290565b604051601f8201601f1916810167ffffffffffffffff8111828210171561098e5761098e610926565b604052919050565b803560ff8116811461083457600080fd5b6000608082840312156109b957600080fd5b6109c161093c565b9050813567ffffffffffffffff808211156109db57600080fd5b818401915084601f8301126109ef57600080fd5b8135602082821115610a0357610a03610926565b610a15601f8301601f19168201610965565b92508183528681838601011115610a2b57600080fd5b81818501828501376000818385010152828552610a49818701610996565b8186015250505050610a5d60408301610996565b6040820152610a6e60608301610996565b606082015292915050565b60008060408385031215610a8c57600080fd5b610a9583610820565b9150602083013567ffffffffffffffff811115610ab157600080fd5b610abd858286016109a7565b9150509250929050565b600060208284031215610ad957600080fd5b813567ffffffffffffffff811115610af057600080fd5b610afc848285016109a7565b949350505050565b600181811c90821680610b1857607f821691505b602082108103610b3857634e487b7160e01b600052602260045260246000fd5b50919050565b601f821115610b8857600081815260208120601f850160051c81016020861015610b655750805b601f850160051c820191505b81811015610b8457828155600101610b71565b5050505b505050565b815167ffffffffffffffff811115610ba757610ba7610926565b610bbb81610bb58454610b04565b84610b3e565b602080601f831160018114610bf05760008415610bd85750858301515b600019600386901b1c1916600185901b178555610b84565b600085815260208120601f198616915b82811015610c1f57888601518255948401946001909101908401610c00565b5085821015610c3d5787850151600019600388901b60f8161c191681555b5050505050600190811b01905550565b634e487b7160e01b600052601160045260246000fd5b600063ffffffff821680610c7957610c79610c4d565b6000190192915050565b600063ffffffff808316818103610c9c57610c9c610c4d565b600101939250505056fea264697066735822122063bec1a3df39929df3674213966662419f63218b7e2942cc090d3b7a9b88c73364736f6c63430008110033",
  "immutableReferences": {
    "12": [
      {
        "length": 32,
        "start": 1294
      }
    ]
  },
  "source": "// SPDX-License-Identifier: MIT\n\npragma solidity ^0.8.17;\n\ncontract StoreAthletes {\n\n    struct Athlete {\n        string name;\n        uint8 age;\n        uint8 height;\n        uint8 weight;\n    }\n\n    address private immutable owner;\n    uint32 private nextId = 0;\n    uint32 public count = 0; \n\n    constructor() {\n        owner = msg.sender;\n    }\n\n    function getNextId() private returns(uint32) {\n        return ++nextId;\n    }\n\n    mapping (uint32 => Athlete) public athletes;\n\n    function addAthlete(Athlete memory newAthlete) public {\n        athletes[getNextId()] = newAthlete;\n        count++;\n    }\n\n    function getAthlete(uint32 id) public view returns(Athlete memory){\n        return athletes[id];\n    }\n\n    function compareStrings(string memory a, string memory b) private pure returns(bool) {\n        return keccak256(bytes(a)) == keccak256(bytes(b));\n    }\n\n    function editAthlete(uint32 id, Athlete memory newAthlete) public {\n        Athlete memory oldAthlete = athletes[id];\n        if(oldAthlete.age == 0) return;\n\n        if(newAthlete.age > 0 && oldAthlete.age != newAthlete.age)\n            oldAthlete.age = newAthlete.age;\n\n        if(bytes(newAthlete.name).length > 0 && !compareStrings(oldAthlete.name, newAthlete.name))\n            oldAthlete.name = newAthlete.name;\n\n        if(newAthlete.height > 0 && oldAthlete.height != newAthlete.height)\n            oldAthlete.height = newAthlete.height;\n\n        if(newAthlete.weight > 0 && oldAthlete.weight != newAthlete.weight)\n            oldAthlete.weight = newAthlete.weight;\n\n        athletes[id] = oldAthlete;\n\n    }\n\n    function removeAthlete(uint32 id) public {\n        require(owner == msg.sender, \"Caller is not the owner.\");\n\n        Athlete memory oldAthlete = athletes[id];\n        if(bytes(oldAthlete.name).length > 0) {\n            delete athletes[id];\n            count--;\n        }\n    }\n\n}\n",
  "sourcePath": "/Users/gabrieltome/Documents/Projects/crud-solidity/contracts/StoreAthletes.sol",
  "compiler": {
    "name": "solc",
    "version": "0.8.17+commit.8df45f5f.Emscripten.clang"
  },
  "schemaVersion": "3.4.10",
  "updatedAt": "2022-10-11T21:44:05.354Z",
  "networkType": "ethereum",
  "devdoc": {
    "kind": "dev",
    "methods": {},
    "version": 1
  },
  "userdoc": {
    "kind": "user",
    "methods": {},
    "version": 1
  }
}